:100000000C942A000C943F000C943F000C943F0089
:100010000C943F000C943F000C943F000C943F0064
:100020000C943F000C943F000C943F000C943F0054
:100030000C943F000C943F000C943F000C943F0044
:100040000C943F000C943F000C943F000C943F0034
:100050000C943F0011241FBECFE5D8E0DEBFCDBF1A
:1000600010E0A0E6B0E0EAE3F6E002C005900D92F1
:10007000AE36B107D9F70E94CE020C941B030C9444
:1000800000001ABA17BA14BA11BA8FEF8BBB88BB2B
:1000900085BB82BB0895683008F074C0442321F00A
:1000A000413009F06FC03AC08130A1F0813030F0AA
:1000B0008230E1F0833009F065C024C02AB381E0CA
:1000C00090E002C0880F991F6A95E2F7809582231D
:1000D0008ABB089527B381E090E002C0880F991F82
:1000E0006A95E2F78095822387BB089524B381E067
:1000F00090E002C0880F991F6A95E2F780958223ED
:1001000084BB089521B381E090E002C0880F991F5D
:100110006A95E2F78095822381BB0895813091F042
:10012000813028F08230C9F0833061F521C02AB3D4
:1001300081E090E002C0880F991F6A95E2F7282BB2
:100140002ABB089527B381E090E002C0880F991F71
:100150006A95E2F7282B27BB089524B381E090E04D
:1001600002C0880F991F6A95E2F7282B24BB0895D7
:1001700021B381E090E002C0880F991F6A95E2F7F1
:10018000282B21BB0895683008F074C0442321F067
:10019000413009F06FC03AC08130A1F0813030F0B9
:1001A0008230E1F0833009F065C024C02BB381E0D8
:1001B00090E002C0880F991F6A95E2F7809582232C
:1001C0008BBB089528B381E090E002C0880F991F8F
:1001D0006A95E2F78095822388BB089525B381E074
:1001E00090E002C0880F991F6A95E2F780958223FC
:1001F00085BB089522B381E090E002C0880F991F6B
:100200006A95E2F78095822382BB0895813091F050
:10021000813028F08230C9F0833061F521C02BB3E2
:1002200081E090E002C0880F991F6A95E2F7282BC1
:100230002BBB089528B381E090E002C0880F991F7E
:100240006A95E2F7282B28BB089525B381E090E05A
:1002500002C0880F991F6A95E2F7282B25BB0895E5
:1002600022B381E090E002C0880F991F6A95E2F7FF
:10027000282B22BB08956830A0F5813091F08130A1
:1002800028F08230C9F0833061F521C02BB381E0C2
:1002900090E002C0880F991F6A95E2F728272BBBD0
:1002A000089528B381E090E002C0880F991F6A95F5
:1002B000E2F7282728BB089525B381E090E002C02B
:1002C000880F991F6A95E2F7282725BB089522B366
:1002D00081E090E002C0880F991F6A95E2F7282715
:1002E00022BB08956830C0F4813049F0813028F095
:1002F000823039F0833081F406C089B305C086B3FB
:1003000003C083B301C080B390E002C09595879588
:100310006A95E2F78170089580E00895813049F090
:10032000813028F0823039F0833041F406C06ABB56
:10033000089567BB089564BB089561BB089581303B
:1003400049F0813028F0823039F0833041F406C022
:100350006BBB089568BB089565BB089562BB0895A3
:10036000813059F0813028F0823059F0833081F4A7
:100370000CC08BB380958BBB089588B3809588BBE8
:10038000089585B3809585BB089582B3809582BB1F
:100390000895813051F0813030F0823041F0833067
:1003A00041F080E0089589B3089586B3089583B33A
:1003B000089580B308954A30A8F4662319F0613097
:1003C00089F408C0E42FF0E0EC59FF4F60810E94EF
:1003D0009F010895E42FF0E0EC59FF4F6081609594
:1003E0000E949F0108951CB80895813039F0813032
:1003F00018F0823031F404C0579A0895569A08953F
:10040000559A0895813039F0813018F0823031F4F6
:1004100004C05798089556980895559808958BB13B
:10042000881F8827881F08958BB1829586958695A9
:10043000817008958BB182958695817008958BB1F6
:100440008295817008958BB1869586958695817089
:1004500008958BB186958695817008955E9A08956A
:10046000599A089559980895589A08955898089552
:100470005F9BFECF8CB10895FC0104C05D9BFECF55
:100480008CB9319680818823C9F70895FC011082C8
:1004900080E090E0A0E0B0E00BC00196A11DB11D8E
:1004A00084179507A607B70719F48FEF808302C05A
:1004B0005F9BF3CF8081882311F48CB180830895F2
:1004C000FC0105C05F9BFECF8CB181936150662318
:1004D000C9F70895FC015F9902C080E008958CB1CE
:1004E000808381E008951BB886E880BD88E18AB9E1
:1004F00083E389B91CB883E060E040E00E944B00D0
:1005000083E061E041E00E944B00089582E060E0FA
:1005100040E00E94C30082E061E040E00E94C3002E
:1005200082E062E041E00E94C300089582E060E062
:1005300040E00E94C30082E061E041E00E94C3000D
:1005400082E062E040E00E94C300089582E060E043
:1005500041E00E94C30082E061E040E00E94C300ED
:1005600082E062E040E00E94C300089582E060E023
:1005700041E00E944B0082E061E041E00E944B00BC
:1005800082E062E041E00E944B0080E06FEF0E9459
:100590008E0181E06FEF0E948E0108950F931F93EB
:1005A000CF93DF930E9441000E94B6020E94730223
:1005B000C8ECD0E00E94A60202E080E060E0402F9C
:1005C0000E94DB0119E080E690E00E943C0281E09D
:1005D00060E0412F0E94DB0180E197E2FE0131974C
:1005E000F1F70197D9F7115070F7015030F70E94D9
:1005F000860205E080E060E0402F0E94DB0119E008
:10060000002321F4163014F40E94960282E690E052
:100610000E943C0281E060E0412F0E94DB0180E10A
:1006200097E2FE013197F1F70197D9F7115040F7A2
:0A063000015000F7BFCFF894FFCF90
:0E063A00300031003F065B4F666D7D077F6F1D
:00000001FF
