:100000000C942A000C9447000C9447000C94470071
:100010000C9447000C9447000C9447000C94470044
:100020000C9447000C9447000C9447000C94470034
:100030000C9447000C9447000C9447000C94470024
:100040000C9447000C9447000C9447000C94470014
:100050000C94470011241FBECFE5D8E0DEBFCDBF12
:1000600010E0A0E6B0E0E4E6F5E002C005900D92F5
:10007000AA36B107D9F710E0AAE6B0E001C01D9298
:10008000AC36B107E1F70E9443020C94B0020C9425
:1000900000001ABA17BA14BA11BA8FEF8BBB88BB1B
:1000A00085BB82BB0895683008F074C0442321F0FA
:1000B000413009F06FC03AC08130A1F0813030F09A
:1000C0008230E1F0833009F065C024C02AB381E0BA
:1000D00090E002C0880F991F6A95E2F7809582230D
:1000E0008ABB089527B381E090E002C0880F991F72
:1000F0006A95E2F78095822387BB089524B381E057
:1001000090E002C0880F991F6A95E2F780958223DC
:1001100084BB089521B381E090E002C0880F991F4D
:100120006A95E2F78095822381BB0895813091F032
:10013000813028F08230C9F0833061F521C02AB3C4
:1001400081E090E002C0880F991F6A95E2F7282BA2
:100150002ABB089527B381E090E002C0880F991F61
:100160006A95E2F7282B27BB089524B381E090E03D
:1001700002C0880F991F6A95E2F7282B24BB0895C7
:1001800021B381E090E002C0880F991F6A95E2F7E1
:10019000282B21BB0895683008F074C0442321F057
:1001A000413009F06FC03AC08130A1F0813030F0A9
:1001B0008230E1F0833009F065C024C02BB381E0C8
:1001C00090E002C0880F991F6A95E2F7809582231C
:1001D0008BBB089528B381E090E002C0880F991F7F
:1001E0006A95E2F78095822388BB089525B381E064
:1001F00090E002C0880F991F6A95E2F780958223EC
:1002000085BB089522B381E090E002C0880F991F5A
:100210006A95E2F78095822382BB0895813091F040
:10022000813028F08230C9F0833061F521C02BB3D2
:1002300081E090E002C0880F991F6A95E2F7282BB1
:100240002BBB089528B381E090E002C0880F991F6E
:100250006A95E2F7282B28BB089525B381E090E04A
:1002600002C0880F991F6A95E2F7282B25BB0895D5
:1002700022B381E090E002C0880F991F6A95E2F7EF
:10028000282B22BB08956830A0F5813091F0813091
:1002900028F08230C9F0833061F521C02BB381E0B2
:1002A00090E002C0880F991F6A95E2F728272BBBC0
:1002B000089528B381E090E002C0880F991F6A95E5
:1002C000E2F7282728BB089525B381E090E002C01B
:1002D000880F991F6A95E2F7282725BB089522B356
:1002E00081E090E002C0880F991F6A95E2F7282705
:1002F00022BB08956830C0F4813049F0813028F085
:10030000823039F0833081F406C089B305C086B3EA
:1003100003C083B301C080B390E002C09595879578
:100320006A95E2F78170089580E00895813049F080
:10033000813028F0823039F0833041F406C06ABB46
:10034000089567BB089564BB089561BB089581302B
:1003500049F0813028F0823039F0833041F406C012
:100360006BBB089568BB089565BB089562BB089593
:10037000813059F0813028F0823059F0833081F497
:100380000CC08BB380958BBB089588B3809588BBD8
:10039000089585B3809585BB089582B3809582BB0F
:1003A0000895813051F0813030F0823041F0833057
:1003B00041F080E0089589B3089586B3089583B32A
:1003C000089580B308954A30A8F4662319F0613087
:1003D00089F408C0E42FF0E0E05AFF4F60810E94EA
:1003E000A7010895E42FF0E0E05AFF4F6081609587
:1003F0000E94A701089582E060E040E00E94CB00E7
:1004000082E061E040E00E94CB0082E062E041E0F7
:100410000E94CB00089582E060E040E00E94CB00A3
:1004200082E061E041E00E94CB0082E062E040E0D7
:100430000E94CB00089582E060E041E00E94CB0082
:1004400082E061E040E00E94CB0082E062E040E0B8
:100450000E94CB00089582E060E041E00E945300DA
:1004600082E061E041E00E94530082E062E041E00E
:100470000E94530080E06FEF0E94960181E06FEFD1
:100480000E9496010895FF920F931F93CF93DF93DD
:100490000E9449000E942B0282E0F82EC8ECD0E0B6
:1004A00019E005E00E941B02F0926A0020C080E083
:1004B00060E00E94E30110936B0010C081E060E0F7
:1004C0000E94E30180E197E2FE013197F1F7019785
:1004D000D9F780916B00815080936B0040916B0045
:1004E00047FFECCF80916A00815080936A00409171
:1004F0006A0047FFDCCF0E94FB0100936A002AC01C
:1005000080E060E00E94E30110936B001AC081E07C
:1005100060E00E94E30180E197E2FE013197F1F78C
:100520000197D9F780916A00882331F480916B009C
:10053000853011F40E940B0280916B0081508093F2
:100540006B0040916B0047FFE2CF80916A008150C1
:1005500080936A0040916A0044230CF4A3CFD0CF6B
:04056000F894FFCF3D
:0A0564003F065B4F666D7D077F6F59
:00000001FF
